:1000000012C02CC02BC02AC029C028C09BC426C047
:1000100025C024C023C022C021C020C01FC01EC0D4
:100020001DC01CC01BC011241FBECFE5D4E0DEBF25
:10003000CDBF11E0A0E6B0E0E6EBFAE002C005902B
:100040000D92A03AB107D9F711E0A0EAB1E001C0E2
:100050001D92A13BB107E1F796D42BC5D1CFCF9329
:10006000DF93EA01EC81F0E0DF01A170B070AA0F2C
:10007000BB1FA40FB51FAC01461B570B16965C9314
:100080004E9315973197E170F070EE0FFF1FEC0F54
:10009000FD1F85819681BA01681B790B7C876B8770
:1000A0008B81282F30E0241735073CF088279927CB
:1000B000821B930B48175907B4F48A8190E0689F1C
:1000C000F001699FF00D789FF00D1124888190E078
:1000D0009C01429FC001439F900D529F900D11249F
:1000E000E80FF91F2AC029853A85240F351F3A8762
:1000F0002987888190E0849FF001859FF00D949F6F
:10010000F00D11248A8190E0AC01469FC001479F09
:10011000900D569F900D1124E80FF91F898190E0F2
:10012000AC01249FC001259F900D349F900D112498
:1001300064E670E074D4E60FF71F8C818F5F8C83C8
:10014000EF3FF10521F01CF02FEF30E006C0F7FF84
:1001500003C020E030E001C09F01C901DF91CF91D1
:1001600008950F931F938AE090E061E070E041E012
:1001700050E021E030E00FE010E077D282E090E044
:1001800061E070E045E050E020E030E00DE010E09C
:100190006CD21F910F910895EF92FF920F931F93CE
:1001A0008C017B0180E090E060E070E023D1C80129
:1001B000F8D1C70160E070E04DE050E021E030E0B0
:1001C0000FE010E052D21F910F91FF90EF90089531
:1001D000FF920F931F93CF93DF93F82E90E029E0C7
:1001E0002F1580F00197FC01EE0FFF1FE80FF91F9C
:1001F000EE0FFF1FDF01AA53BF4F0D911C91E85373
:10020000FF4F0FC00C97FC01EE0FFF1FE80FF91F07
:10021000EE0FFF1FDF01A55FBE4F0D911C91E35F45
:10022000FE4FC081D18180E090E060E070E0E2D0DC
:10023000C80186D081E090E060E070E0DBD0CE01C4
:100240007FD08AE08F15F0F42F2D30E0F901EE0F0A
:10025000FF1FE20FF31FEE0FFF1FE55FFE4F8481CC
:100260009581892B79F0C9010C97FC01EE0FFF1FD6
:10027000E80FF91FEE0FFF1FE55FFE4F0480F581C9
:10028000E02D0995DF91CF911F910F91FF90089577
:1002900080FF02C0979A01C0979881FF02C0C09A60
:1002A00001C0C09882FF02C0C19A01C0C19883FFFB
:1002B00002C0C29A0895C298089580B3881F882703
:1002C000881FB0998260B1998460B299886008955E
:1002D0001F93BA98B998B8988F98959AC79AEDDFF6
:1002E000182F1295107FC798C79AE7DFC798812B00
:1002F0001F9108959698ECDF08951F93182FBA9ACE
:10030000B99AB89A8F9A9598C79A82958F70C0DFDC
:10031000C798C79A812FBCDFC798ECDF87FDFDCF58
:100320001F9108959698E9DF0895969AE6DF08955B
:10033000982F8058883008F49770892FF6DF089539
:10034000CF93DF93EC0107C0892F8058883008F4E1
:100350009770892FEADF99919923B1F7DF91CF91B7
:100360000895CF93DF93EC0109C0892F805888301E
:1003700010F0892F02C0892F8770D7DFFE012196E8
:100380009491992391F7DF91CF9108951F93CF9383
:10039000DF93EB0190E0877090700896880F880FCC
:1003A000880FC0DF10E08991C0DF1F5F1830D9F7D8
:1003B000DF91CF911F9108950F931F93CF93DF93F8
:1003C0008B0190E0877090700896880F880F880FD7
:1003D000A9DFC0E0D0E0F801EC0FFD1FE4918E2F03
:1003E000A4DF2196C830D105B1F7DF91CF911F91DD
:1003F0000F910895813009F480E46058860F92DFF0
:10040000089581E08FDF08950F931F93DF93CF93BB
:10041000CDB7DEB7C154D0400FB6F894DEBF0FBEE3
:10042000CDBFDE011196EFE5F1E080E401900D9281
:100430008150E1F78E010F5F1F4F90E0892FB801C7
:1004400022969FAF2297A2DF22969FAD22979F5FB1
:10045000085F1F4F983091F7CF5BDF4F0FB6F894CE
:10046000DEBF0FBECDBFCF91DF911F910F910895D9
:100470000F931F93BA9AB99AB89A8F9A8E9ABF9A85
:100480008D9A969AC79A959A80E395E70197F1F726
:10049000C79896989598C79A83E0FADEC79888E03F
:1004A00090E20197F1F7C79A83E0F2DEC79808EC73
:1004B00010E0C8010197F1F7C79A83E0E9DEC79819
:1004C000C8010197F1F7C79A82E0E2DEC798C80138
:1004D0000197F1F788E226DF88E024DF8CE022DF55
:1004E00086E020DF91DF8DDF1F910F910895E1E01D
:1004F000F0E005C031966AE070E07DD2CB018A3031
:100500009105C0F78E2F0895CF92DF92EF92FF9260
:100510000F931F93182FF92EE62ED42EA82FB92F44
:10052000FD0101900020E9F73197CE2EC81A222351
:1005300059F18091AE01882379F48091A10188233B
:1005400059F4862F642F56DF812F9F2DF9DE81E02D
:100550008093A1010093AE018091AE018823D1F474
:100560008091A1018823B1F08E2D6D2D43DF10E025
:1005700003C080E2DDDE1F5F1C15D8F31092A101DD
:1005800006950093AE0106C0862F642F33DF812FBE
:100590009F2DD6DE1F910F91FF90EF90DF90CF90AF
:1005A0000895CF92DF92EF92FF920F931F93DF9304
:1005B000CF93CDB7DEB761970FB6F894DEBF0FBE0D
:1005C000CDBFBE016F5F7F4F4AE050E03BD26C0170
:1005D0001EC090DE182F1F770053E02EFF24EE0C74
:1005E000FF1CEE0CFF1CF701E95CFE4F808191813E
:1005F000A7DE812F805496DE89E391E0E80EF91E94
:10060000F701808191819CDE812F8D578BDEF60171
:1006100001916F010023E9F661960FB6F894DEBFF1
:100620000FBECDBFCF91DF911F910F91FF90EF9043
:10063000DF90CF900895DF93CF93CDB7DEB761976A
:100640000FB6F894DEBF0FBECDBFBE016F5F7F4F08
:100650004AE050E0F7D174DE61960FB6F894DEBF41
:100660000FBECDBFCF91DF910895DF92EF92FF9241
:100670000F931F93CF93DF93EC01F62EE42E122FEE
:1006800036DFD82E112351F18091AE01882371F409
:100690008091A001882351F48F2D6E2DABDECE0109
:1006A000CADF81E08093A0010093AE018091AE018A
:1006B0008823C9F48091A0018823A9F08F2D6E2D85
:1006C00099DE10E003C080E233DE1F5F1D15D8F312
:1006D0001092A00106950093AE0105C08F2D6E2DDE
:1006E00089DECE01A8DFDF91CF911F910F91FF909E
:1006F000EF90DF9008950F931F93CF93DF938B01BB
:1007000090E0877090700896880F880F880F0ADE37
:10071000C0E0D0E0C8018C0F9D1FB3D106DE21964A
:10072000C830D105B9F7DF91CF911F910F9108958E
:10073000CF93DF93EC012196A4D1982F81508E3F67
:1007400040F48F57883008F49770892FEEDDCE0182
:10075000F1CFDF91CF9108958A98929A08951092DF
:10076000A2011092A3011092A4011092A5018299F6
:1007700000C008950F931F93CF93DF93EC018B017B
:1007800082991EC08091A2019091A301A091A40121
:10079000B091A5010196A11DB11D8093A201909376
:1007A000A301A093A401B093A501815D9740A0404F
:1007B000B04020F081E08093A60102C01092A60113
:1007C000829B03C081E08093A60180E06AE012DE94
:1007D0008091A2019091A3012EDF81E06AE00ADE00
:1007E0008091A60190E027DF8091A601882309F47B
:1007F0003FC08091A2019091A301A091A401B0916A
:10080000A501813DE7E09E07E0E0AE07E0E0BE071E
:1008100078F0F8018081865F80831092A2011092A7
:10082000A3011092A4011092A501829B21C020C0B7
:1008300081599140A040B0408F539640A040B040B5
:10084000B8F488818F5F8883829902C0813021F05B
:10085000823011F0833011F4865F88831092A201F8
:100860001092A3011092A4011092A501829900C0D8
:10087000DF91CF911F910F91089590B3987190934C
:10088000A8018091AD019817A9F18091AD01883040
:10089000A9F089301CF4882331F02AC0803199F006
:1008A000883131F503C0983029F402C0903111F439
:1008B00081E001C08FEF8093A9011AC0983179F0CF
:1008C000992319F015C0983141F48091A90187FF4F
:1008D0000FC08091A7018F5F09C0992349F48091CF
:1008E000A90118162CF48091A70181508093A701CB
:1008F0009093AD0108958091A7011092A7010895EA
:100900001092A70180B388718093AD01089581B3DF
:10091000877E81BB82B3886182BB089587B1806C7A
:1009200087B986B1866886B9089527B197B1987F4F
:10093000922B982B97B9369A3699FECF24B135B1C0
:10094000C90108951F920F920FB60F9211248F9331
:100950008091AE01882319F081508093AE0180917F
:10096000AF01882319F081508093AF018091B001CD
:10097000882319F081508093B0018F910F900FBEA2
:100980000F901F9018951F9373DDC1DFB9DF8EB5EF
:1009900088608EBD8EB585608EBD89B7806189BF48
:1009A00088EC90E09BBD8ABDB9DFD6DE789465DF28
:1009B0001091AC01112311F4A3DF04C09CDF180FC8
:1009C0001093AC018091AC0103DC8091AC018823D1
:1009D00031F481E491E060EB71E040E0DDDB8CEA32
:1009E00091E0BC01C7DE81E06EE004DD8091AC01E6
:1009F00090E021DEDCCFAA1BBB1B51E107C0AA1F80
:100A0000BB1FA617B70710F0A61BB70B881F991FAF
:100A10005A95A9F780959095BC01CD01089597FB53
:100A2000092E07260AD077FD04D0E5DF06D0002086
:100A30001AF4709561957F4F0895F6F7909581951A
:100A40009F4F0895FB019F01E8944230BCF045326E
:100A5000ACF44A3029F497FB1EF4909581959F4F92
:100A6000642F7727C8DF805D8A330CF0895D81931E
:100A7000CB010097A9F716F45DE251931082C901EA
:100A800008C0E199FECF9FBB8EBBE09A99278DB33A
:100A90000895DC01FC01672F71917723E1F732970C
:100AA00004C07C916D9370836291AE17BF07C8F349
:060AB0000895F894FFCF49
:100AB6003E20557374617769656E696120504944BB
:100AC60000496E666F726D61636A65202020202082
:100AD6002000557374617769656E696120504944D9
:100AE6002020003E20496E666F726D61636A652044
:100AF600202020003E2057796A73636965202020F4
:100B060020202020002020202020202020202020FF
:100B16002020202020006000710000008200930049
:100B26000000A400B5000000204B5020204B4920B7
:100B3600204B4420204B5420004A616E204B6F7797
:100B4600616C736B692020202000576172737A6193
:100B56007761203230323020202000D8000000B1EA
:100B660000E900FA00000083848200838582002069
:100B760020820080868200838585008185820083AD
:100B86008687008386820017011B011F011F012330
:100B960001270123012B011B011F012F012B012F0F
:100BA600011B0117011F0133011B0133012B010F2B
:100BB60007202020200307202020202020070F1CAC
:100BC6001E1E1E1E1E1E1C070F0F0F0F0F0F071FC8
:100BD6001F2020202020202020202020201F1F1F13
:100BE6001F202020201F1F1E1C20202020181C0034
:00000001FF
