:1000000012C02CC02BC02AC029C028C04AC526C097
:1000100025C024C023C022C021C020C01FC01EC0D4
:100020001DC01CC01BC011241FBECFE5D4E0DEBF25
:10003000CDBF11E0A0E6B0E0E2E3FCE002C0059035
:100040000D92AC3BB107D9F711E0ACEBB1E001C0C8
:100050001D92A53DB107E1F745D583C0D1CFCF9320
:10006000DF93EA01EC81F0E0DF01A170B070AA0F2C
:10007000BB1FA40FB51FAC01461B570B16965C9314
:100080004E9315973197E170F070EE0FFF1FEC0F54
:10009000FD1F85819681BA01681B790B7C876B8770
:1000A0008B81282F30E0241735073CF088279927CB
:1000B000821B930B48175907B4F48A8190E0689F1C
:1000C000F001699FF00D789FF00D1124888190E078
:1000D0009C01429FC001439F900D529F900D11249F
:1000E000E80FF91F2AC029853A85240F351F3A8762
:1000F0002987888190E0849FF001859FF00D949F6F
:10010000F00D11248A8190E0AC01469FC001479F09
:10011000900D569F900D1124E80FF91F898190E0F2
:10012000AC01249FC001259F900D349F900D112498
:1001300064E670E034D5E60FF71F8C818F5F8C8307
:10014000EF3FF10521F01CF02FEF30E006C0F7FF84
:1001500003C020E030E001C09F01C901DF91CF91D1
:1001600008951092CC0108958CEB91E060E070E06E
:10017000C3D38091BC01882319F082E08093CC0125
:1001800008950F931F9381E090E060E070E0F4D158
:1001900080E690E097D181E090E063E070E0ECD100
:1001A00002E610E0C8018ED181E090E067E070E0E7
:1001B000E3D1C80187D181E090E06BE070E0DCD151
:1001C000C80180D11F910F9108950F931F93DF9362
:1001D000CF93CDB7DEB760970FB6F894DEBF0FBEF2
:1001E000CDBFDE011196E4E2F1E080E101900D92D5
:1001F0008150E1F7C6DF8DEB91E060E070E040E018
:1002000050E07AD38091BD01843028F01092BD0176
:1002100081E08093CC018091CD018A3040F481E06F
:1002200090E062E070E0A8D180E290E043D180915C
:10023000BD01FE01E80FF11D21818091CD0190E00B
:1002400061E070E041E050E030E00FE010E0CFD23C
:100250008091CE018A3040F481E090E066E070E069
:100260008BD180E290E026D18091BD01FE01E80FA4
:10027000F11D25818091CE0190E061E070E045E0C4
:1002800050E030E00FE010E0B2D28091BD01FE01FD
:10029000E80FF11D21858091CF0190E061E070E0D1
:1002A00049E050E030E0A3D28091BD01FE01E80FAB
:1002B000F11D25858091D00190E061E070E04DE076
:1002C00050E030E094D283D38091BD01882331F493
:1002D0001091CD01BAD3180F1093CD018091BD01BB
:1002E000813031F41091CE01B0D3180F1093CE01AC
:1002F0008091BD01823031F41091CF01A6D3180F47
:100300001093CF018091BD01833031F41091D00161
:100310009CD3180F1093D00160960FB6F894DEBFEF
:100320000FBECDBFCF91DF911F910F910895FF9226
:100330000F931F93CF93DF93F82E90E029E02F15B2
:1003400080F00197FC01EE0FFF1FE80FF91FEE0F81
:10035000FF1FDF01A353BF4F0D911C91E153FF4FCE
:100360000FC00C97FC01EE0FFF1FE80FF91FEE0FF7
:10037000FF1FDF01AE5EBE4F0D911C91EC5EFE4F84
:10038000C081D18180E090E060E070E0F5D0C801EC
:1003900099D081E090E060E070E0EED0CE0192D0A4
:1003A0008AE08F1590F48F2D90E00C97FC01EE0FF2
:1003B000FF1FE80FF91FEE0FFF1FEE5EFE4F0480D8
:1003C000F581E02D309709F00995DF91CF911F91CC
:1003D0000F91FF900895DF92EF92FF920F931F937A
:1003E0008C017B01D42E80E090E060E070E0C4D00E
:1003F000C80199D1C70160E070E04CE050E02D2DBC
:1004000030E00FE010E0F3D11F910F91FF90EF90DB
:10041000DF90089580FF02C0979A01C0979881FFEE
:1004200002C0C09A01C0C09882FF02C0C19A01C038
:10043000C19883FF02C0C29A0895C298089580B3FC
:10044000881F8827881FB0998260B1998460B2990B
:10045000886008951F93BA98B998B8988F98959A1C
:10046000C79AEDDF182F1295107FC798C79AE7DF5C
:10047000C798812B1F9108959698ECDF08951F93DC
:10048000182FBA9AB99AB89A8F9A9598C79A82955E
:100490008F70C0DFC798C79A812FBCDFC798ECDF89
:1004A00087FDFDCF1F9108959698E9DF0895969AEC
:1004B000E6DF0895982F8058883008F49770892FC8
:1004C000F6DF0895CF93DF93EC0107C0892F8058A2
:1004D000883008F49770892FEADF99919923B1F752
:1004E000DF91CF910895CF93DF93EC0109C0892F5D
:1004F0008058883010F0892F02C0892F8770D7DF8D
:10050000FE0121969491992391F7DF91CF9108955F
:100510001F93CF93DF93EB0190E087709070089664
:10052000880F880F880FC0DF10E08991C0DF1F5F40
:100530001830D9F7DF91CF911F9108950F931F9332
:10054000CF93DF938B0190E0877090700896880FAF
:10055000880F880FA9DFC0E0D0E0F801EC0FFD1F85
:10056000E4918E2FA4DF2196C830D105B1F7DF9139
:10057000CF911F910F910895813009F480E4605864
:10058000860F92DF089581E08FDF08950F931F9308
:10059000DF93CF93CDB7DEB7C154D0400FB6F894F8
:1005A000DEBF0FBECDBFDE011196ECE7F1E080E4C7
:1005B00001900D928150E1F78E010F5F1F4F90E087
:1005C000892FB80122969FAF2297A2DF22969FAD76
:1005D00022979F5F085F1F4F983091F7CF5BDF4FE7
:1005E0000FB6F894DEBF0FBECDBFCF91DF911F9144
:1005F0000F9108950F931F93BA9AB99AB89A8F9A48
:100600008E9ABF9A8D9A969AC79A959A80E395E7A3
:100610000197F1F7C79896989598C79A83E0FADE04
:10062000C79888E090E20197F1F7C79A83E0F2DE7D
:10063000C79808EC10E0C8010197F1F7C79A83E06A
:10064000E9DEC798C8010197F1F7C79A82E0E2DEB8
:10065000C798C8010197F1F788E226DF88E024DF18
:100660008CE022DF86E020DF91DF8DDF1F910F918C
:100670000895E1E0F0E005C031966AE070E07BD2D9
:10068000CB018A309105C0F78E2F0895CF92DF926B
:10069000EF92FF920F931F93182FF92EE62ED42E70
:1006A000A82FB92FFD0101900020E9F73197CE2E38
:1006B000C81A222359F18091D201882379F48091BC
:1006C000BF01882359F4862F642F56DF812F9F2D79
:1006D000F9DE81E08093BF010093D2018091D201C5
:1006E0008823D1F48091BF018823B1F08E2D6D2D28
:1006F00043DF10E003C080E2DDDE1F5F1C15D8F38E
:100700001092BF0106950093D20106C0862F642F78
:1007100033DF812F9F2DD6DE1F910F91FF90EF9039
:10072000DF90CF900895CF92DF92EF92FF920F93D8
:100730001F93DF93CF93CDB7DEB761970FB6F894D1
:10074000DEBF0FBECDBFBE016F5F7F4F4AE050E0FE
:1007500039D26C011EC090DE182F1F770053E02E97
:10076000FF24EE0CFF1CEE0CFF1CF701EC5AFE4FB1
:1007700080819181A7DE812F805496DE86E591E00D
:10078000E80EF91EF701808191819CDE812F8D5743
:100790008BDEF60101916F010023E9F661960FB639
:1007A000F894DEBF0FBECDBFCF91DF911F910F91A7
:1007B000FF90EF90DF90CF900895DF93CF93CDB768
:1007C000DEB761970FB6F894DEBF0FBECDBFBE0196
:1007D0006F5F7F4F4AE050E0F5D174DE61960FB64F
:1007E000F894DEBF0FBECDBFCF91DF910895DF92A9
:1007F000EF92FF920F931F93CF93DF93EC01F62EAE
:10080000E42E122F36DFD82E112351F18091D20120
:10081000882371F48091BE01882351F48F2D6E2DB1
:10082000ABDECE01CADF81E08093BE010093D2012E
:100830008091D2018823C9F48091BE018823A9F058
:100840008F2D6E2D99DE10E003C080E233DE1F5F36
:100850001D15D8F31092BE0106950093D20105C074
:100860008F2D6E2D89DECE01A8DFDF91CF911F91F4
:100870000F91FF90EF90DF9008950F931F93CF9308
:10088000DF938B0190E0877090700896880F880F37
:10089000880F0ADEC0E0D0E0C8018C0F9D1FB1D1E7
:1008A00006DE2196C830D105B9F7DF91CF911F91AF
:1008B0000F910895CF93DF93EC012196A2D1982F49
:1008C00081508E3F40F48F57883008F49770892FFD
:1008D000EEDDCE01F1CFDF91CF9108958A98929A03
:1008E00008951092C0011092C1011092C20110929D
:1008F000C301829900C00895CF93DF93FC01EB01FF
:1009000082991EC08091C0019091C101A091C20145
:10091000B091C3010196A11DB11D8093C0019093B8
:10092000C101A093C201B093C301855F9140A04073
:10093000B04020F081E08093C40102C01092C40155
:10094000829B03C081E08093C4018091C40188230D
:10095000D9F18091C0019091C101A091C201B091E3
:10096000C301853F21E0920720E0A20720E0B20703
:1009700068F081E088831092C0011092C10110924A
:10098000C2011092C301829B1FC01EC089579040B4
:10099000A040B0408B579140A040B040A8F4808167
:1009A0008F5F8083442331F0829B02C0853010F436
:1009B000865F80831092C0011092C1011092C20123
:1009C0001092C301829900C0DF91CF91089590B336
:1009D00098719093C6018091D1019817A9F18091E7
:1009E000D1018830A9F089301CF4882331F02AC065
:1009F000803199F0883131F503C0983029F402C074
:100A0000903111F481E001C08FEF8093C7011AC0CB
:100A1000983179F0992319F015C0983141F48091FB
:100A2000C70187FF0FC08091C5018F5F09C099235F
:100A300049F48091C70118162CF48091C5018150AA
:100A40008093C5019093D10108958091C5011092C2
:100A5000C50108951092C50180B388718093D101BA
:100A6000089581B3877E81BB82B3886182BB08957C
:100A700087B1806C87B986B1866886B9089527B139
:100A800097B1987F922B982B97B9369A3699FECFCB
:100A900024B135B1C90108958091C8019091C9016F
:100AA00008951F920F920FB60F9211248F93809189
:100AB000D201882319F081508093D2018091D30113
:100AC000882319F081508093D3018091D401882329
:100AD00019F081508093D4018F910F900FBE0F9029
:100AE0001F9018951F9386DDBCDFB4DF8EB588603C
:100AF0008EBD8EB585608EBD89B7806189BF88EC5B
:100B000090E09BBD8ABDB4DFE9DE789460DF109190
:100B1000CC01112321F01C3011F01D3011F49ADFAB
:100B200004C093DF180F1093CC018091CC01FFDB40
:100B30008091CC01882339F481E491E060EB71E08D
:100B400041E020E048DC8091CC01882329F480E05A
:100B500090E06CEC71E00CC08C3031F08CEC91E0EA
:100B600060E070E041E005C080E090E060E070E0AF
:100B700040E0C2DECBCFAA1BBB1B51E107C0AA1FBE
:100B8000BB1FA617B70710F0A61BB70B881F991F2E
:100B90005A95A9F780959095BC01CD01089597FBD2
:100BA000092E07260AD077FD04D0E5DF06D0002005
:100BB0001AF4709561957F4F0895F6F79095819599
:100BC0009F4F0895FB019F01E8944230BCF04532ED
:100BD000ACF44A3029F497FB1EF4909581959F4F11
:100BE000642F7727C8DF805D8A330CF0895D81939D
:100BF000CB010097A9F716F45DE251931082C90169
:100C000008C0E199FECF9FBB8EBBE09A99278DB3B8
:100C10000895DC01FC01672F71917723E1F732978A
:100C200004C07C916D9370836291AE17BF07C8F3C7
:020C3000089525
:100C320020002020003E20557374617769656E693B
:100C42006520504944202000496E666F726D6163D1
:100C52006A65202020202020005573746177696521
:100C62006E6961205049442020003E20496E666F23
:100C7200726D61636A6520202020003E2057796AE8
:100C8200736369652020202020202000202020205E
:100C920020202020202020202020202000650078F5
:100CA20000000089009A000000AB00BC0000002098
:100CB2004B5020204B4920204B4420204B542000F5
:100CC2004A616E204B6F77616C736B692020202024
:100CD20000576172737A617761203230323020209E
:100CE2002000DF000000E500F0000101B400000078
:100CF2000000B1000100000000010000000001003E
:100D0200000000018384820083858200202082000B
:100D120080868200838585008185820083868700A4
:100D220083868200340138013C013C0140014401C8
:100D32004001480138013C014C0148014C01380195
:100D420034013C0150013801500148010F072020B5
:100D520020200307202020202020070F1C1E1E1EFB
:100D62001E1E1E1C070F0F0F0F0F0F071F1F202025
:100D7200202020202020202020201F1F1F1F202075
:0C0D820020201F1F1E1C20202020181CF9
:00000001FF
