:1000000012C02CC02BC02AC029C028C0E9C426C0F9
:1000100025C024C023C022C021C020C01FC01EC0D4
:100020001DC01CC01BC011241FBECFE5D4E0DEBF25
:10003000CDBF11E0A0E6B0E0EAE6FBE002C005902B
:100040000D92AE3AB107D9F711E0AEEAB1E001C0C6
:100050001D92A03CB107E1F7E4D485C5D1CFCF9381
:10006000DF93EA01EC81F0E0DF01A170B070AA0F2C
:10007000BB1FA40FB51FAC01461B570B16965C9314
:100080004E9315973197E170F070EE0FFF1FEC0F54
:10009000FD1F85819681BA01681B790B7C876B8770
:1000A0008B81282F30E0241735073CF088279927CB
:1000B000821B930B48175907B4F48A8190E0689F1C
:1000C000F001699FF00D789FF00D1124888190E078
:1000D0009C01429FC001439F900D529F900D11249F
:1000E000E80FF91F2AC029853A85240F351F3A8762
:1000F0002987888190E0849FF001859FF00D949F6F
:10010000F00D11248A8190E0AC01469FC001479F09
:10011000900D569F900D1124E80FF91F898190E0F2
:10012000AC01249FC001259F900D349F900D112498
:1001300064E670E0CED4E60FF71F8C818F5F8C836E
:10014000EF3FF10521F01CF02FEF30E006C0F7FF84
:1001500003C020E030E001C09F01C901DF91CF91D1
:1001600008950F931F9381E090E060E070E0A3D1C9
:1001700080E690E046D181E090E063E070E09BD1C2
:1001800002E610E0C8013DD181E090E067E070E058
:1001900092D1C80136D181E090E06BE070E08BD164
:1001A000C8012FD11F910F9108950F931F93DF93D3
:1001B000CF93CDB7DEB760970FB6F894DEBF0FBE12
:1001C000CDBFDE011196E5E1F1E080E101900D92F5
:1001D0008150E1F7C6DF8EEA91E060E070E040E038
:1001E00050E029D38091AE01843010F01092AE011E
:1001F0008091AE0190E0FE01E80FF91F218161E0DE
:1002000070E041E050E030E00FE010E08FD28091EC
:10021000AE01FE01E80FF11D25818CE090E061E068
:1002200070E045E050E030E081D28091AE01FE0107
:10023000E80FF11D218585E190E061E070E049E083
:1002400050E030E073D28091AE01FE01E80FF11D65
:10025000258581E190E061E070E04DE050E030E024
:1002600065D260960FB6F894DEBF0FBECDBFCF91BA
:10027000DF911F910F910895FF920F931F93CF93DA
:10028000DF93F82E90E029E02F1580F00197FC0114
:10029000EE0FFF1FE80FF91FEE0FFF1FDF01AC533A
:1002A000BF4F0D911C91EA53FF4F0FC00C97FC01FB
:1002B000EE0FFF1FE80FF91FEE0FFF1FDF01A75F13
:1002C000BE4F0D911C91E55FFE4FC081D18180E052
:1002D00090E060E070E0EFD0C80193D081E090E062
:1002E00060E070E0E8D0CE018CD08AE08F15F0F4A9
:1002F0002F2D30E0F901EE0FFF1FE20FF31FEE0F7D
:10030000FF1FE75FFE4F84819581892B79F0C9013A
:100310000C97FC01EE0FFF1FE80FF91FEE0FFF1FF8
:10032000E75FFE4F0480F581E02D0995DF91CF91C5
:100330001F910F91FF9008950F931F938C0180E000
:1003400090E060E070E0B7D0C8018CD11F910F91B0
:10035000089580FF02C0979A01C0979881FF02C05C
:10036000C09A01C0C09882FF02C0C19A01C0C19862
:1003700083FF02C0C29A0895C298089580B3881F6F
:100380008827881FB0998260B1998460B29988608B
:1003900008951F93BA98B998B8988F98959AC79A64
:1003A000EDDF182F1295107FC798C79AE7DFC7981F
:1003B000812B1F9108959698ECDF08951F93182FB5
:1003C000BA9AB99AB89A8F9A9598C79A82958F7067
:1003D000C0DFC798C79A812FBCDFC798ECDF87FDC5
:1003E000FDCF1F9108959698E9DF0895969AE6DF6C
:1003F0000895982F8058883008F49770892FF6DF79
:100400000895CF93DF93EC0107C0892F805888307F
:1004100008F49770892FEADF99919923B1F7DF915A
:10042000CF910895CF93DF93EC0109C0892F8058B5
:10043000883010F0892F02C0892F8770D7DFFE0126
:1004400021969491992391F7DF91CF9108951F936D
:10045000CF93DF93EB0190E0877090700896880F40
:10046000880F880FC0DF10E08991C0DF1F5F183050
:10047000D9F7DF91CF911F9108950F931F93CF93D9
:10048000DF938B0190E0877090700896880F880F3B
:10049000880FA9DFC0E0D0E0F801EC0FFD1FE49168
:1004A0008E2FA4DF2196C830D105B1F7DF91CF910F
:1004B0001F910F910895813009F480E46058860FF0
:1004C00092DF089581E08FDF08950F931F93DF93EC
:1004D000CF93CDB7DEB7C154D0400FB6F894DEBF8E
:1004E0000FBECDBFDE011196EDE6F1E080E4019094
:1004F0000D928150E1F78E010F5F1F4F90E0892F21
:10050000B80122969FAF2297A2DF22969FAD229735
:100510009F5F085F1F4F983091F7CF5BDF4F0FB69B
:10052000F894DEBF0FBECDBFCF91DF911F910F9129
:1005300008950F931F93BA9AB99AB89A8F9A8E9A80
:10054000BF9A8D9A969AC79A959A80E395E70197F4
:10055000F1F7C79896989598C79A83E0FADEC798FE
:1005600088E090E20197F1F7C79A83E0F2DEC7983E
:1005700008EC10E0C8010197F1F7C79A83E0E9DEC3
:10058000C798C8010197F1F7C79A82E0E2DEC798E1
:10059000C8010197F1F788E226DF88E024DF8CE0CC
:1005A00022DF86E020DF91DF8DDF1F910F9108951C
:1005B000E1E0F0E005C031966AE070E076D2CB0170
:1005C0008A309105C0F78E2F0895CF92DF92EF9277
:1005D000FF920F931F93182FF92EE62ED42EA82FDB
:1005E000B92FFD0101900020E9F73197CE2EC81AEE
:1005F000222359F18091BD01882379F48091B001C3
:10060000882359F4862F642F56DF812F9F2DF9DE22
:1006100081E08093B0010093BD018091BD018823EA
:10062000D1F48091B0018823B1F08E2D6D2D43DF80
:1006300010E003C080E2DDDE1F5F1C15D8F31092CE
:10064000B00106950093BD0106C0862F642F33DFED
:10065000812F9F2DD6DE1F910F91FF90EF90DF909D
:10066000CF900895CF92DF92EF92FF920F931F9356
:10067000DF93CF93CDB7DEB761970FB6F894DEBFA7
:100680000FBECDBFBE016F5F7F4F4AE050E034D256
:100690006C011EC090DE182F1F770053E02EFF2440
:1006A000EE0CFF1CEE0CFF1CF701EB5BFE4F808194
:1006B0009181A7DE812F805496DE87E491E0E80ED9
:1006C000F91EF701808191819CDE812F8D578BDE91
:1006D000F60101916F010023E9F661960FB6F894D7
:1006E000DEBF0FBECDBFCF91DF911F910F91FF9065
:1006F000EF90DF90CF900895DF93CF93CDB7DEB723
:1007000061970FB6F894DEBF0FBECDBFBE016F5F1D
:100710007F4F4AE050E0F0D174DE61960FB6F89456
:10072000DEBF0FBECDBFCF91DF910895DF92EF9274
:10073000FF920F931F93CF93DF93EC01F62EE42EDD
:10074000122F36DFD82E112351F18091BD0188235D
:1007500071F48091AF01882351F48F2D6E2DABDEA3
:10076000CE01CADF81E08093AF010093BD0180918B
:10077000BD018823C9F48091AF018823A9F08F2D92
:100780006E2D99DE10E003C080E233DE1F5F1D1581
:10079000D8F31092AF0106950093BD0105C08F2DCF
:1007A0006E2D89DECE01A8DFDF91CF911F910F91D1
:1007B000FF90EF90DF9008950F931F93CF93DF93F7
:1007C0008B0190E0877090700896880F880F880FD3
:1007D0000ADEC0E0D0E0C8018C0F9D1FACD106DE60
:1007E0002196C830D105B9F7DF91CF911F910F91B4
:1007F0000895CF93DF93EC0121969DD1982F8150DE
:100800008E3F40F48F57883008F49770892FEEDDC3
:10081000CE01F1CFDF91CF9108958A98929A0895F1
:100820001092B1011092B2011092B3011092B40172
:10083000829900C00895CF93DF93FC01EB01829968
:100840001EC08091B1019091B201A091B301B0910D
:10085000B4010196A11DB11D8093B1019093B20125
:10086000A093B301B093B401895E9340A040B0401F
:1008700020F081E08093B50102C01092B501829B07
:1008800003C081E08093B5018091B501882309F40C
:100890003FC08091B1019091B201A091B301B0919C
:1008A000B401893E23E0920720E0A20720E0B207CE
:1008B00068F081E088831092B1011092B201109229
:1008C000B3011092B401829B23C022C0855B90408B
:1008D000A040B04083539340A040B040C8F4808112
:1008E0008F5F8083442351F0829902C0813021F0D0
:1008F000823011F0833011F4865F80831092B10151
:100900001092B2011092B3011092B401829900C00A
:10091000DF91CF91089590B398719093B701809132
:10092000BC019817A9F18091BC018830A9F08930E9
:100930001CF4882331F02AC0803199F0883131F5D8
:1009400003C0983029F402C0903111F481E001C055
:100950008FEF8093B8011AC0983179F0992319F07C
:1009600015C0983141F48091B80187FF0FC0809184
:10097000B6018F5F09C0992349F48091B801181618
:100980002CF48091B60181508093B6019093BC0104
:1009900008958091B6011092B60108951092B601A3
:1009A00080B388718093BC01089581B3877E81BB39
:1009B00082B3886182BB089587B1806C87B986B1A4
:1009C000866886B9089527B197B1987F922B982BA6
:1009D00097B9369A3699FECF24B135B1C901089539
:1009E0001F920F920FB60F9211248F938091BD0129
:1009F000882319F081508093BD018091BE01882326
:100A000019F081508093BE018091BF01882319F0B5
:100A100081508093BF018F910F900FBE0F901F9058
:100A200018951F9386DDC1DFB9DF8EB588608EBD56
:100A30008EB585608EBD89B7806189BF88EC90E0F6
:100A40009BBD8ABDB9DFE9DE789465DF1091BB01FB
:100A5000112311F4A3DF04C09CDF180F1093BB0116
:100A60008091BB0109DC8091BB01882331F481E4D2
:100A700091E060EB71E040E05FDC8091BB01882396
:100A800029F480E090E06BEB71E00CC08C3031F029
:100A90008BEB91E060E070E041E005C080E090E029
:100AA00060E070E040E0C7DED0CFAA1BBB1B51E185
:100AB00007C0AA1FBB1FA617B70710F0A61BB70BCE
:100AC000881F991F5A95A9F780959095BC01CD0173
:100AD000089597FB092E07260AD077FD04D0E5DF9D
:100AE00006D000201AF4709561957F4F0895F6F7AF
:100AF000909581959F4F0895FB019F01E8944230A6
:100B0000BCF04532ACF44A3029F497FB1EF49095C2
:100B100081959F4F642F7727C8DF805D8A330CF063
:100B2000895D8193CB010097A9F716F45DE251939B
:100B30001082C90108C0E199FECF9FBB8EBBE09A2D
:100B400099278DB30895DC01FC01672F71917723FC
:100B5000E1F7329704C07C916D9370836291AE1778
:0A0B6000BF07C8F30895F894FFCF13
:100B6A0020002020003E2055737461776965004992
:100B7A006E666F726D61636A6520202020202000F6
:100B8A00557374617769656E696120504944202004
:100B9A00003E20496E666F726D61636A652020208F
:100BAA0020003E2057796A7363696520202020203F
:100BBA00202000202020202020202020202020204B
:100BCA002020200065006F000000800091000000D6
:100BDA00A200B3000000204B5020204B4920204B9C
:100BEA004420204B5420004A616E204B6F77616C81
:100BFA00736B692020202000576172737A617761D4
:100C0A00203230323020202000D6000000D500E704
:100C1A0000F80000000100000000010000000001CF
:100C2A0000000000018384820083858200202082E4
:100C3A00008086820083858500818582008386877D
:100C4A000083868200250129012D012D01310135FC
:100C5A00013101390129012D013D0139013D0129E6
:100C6A000125012D0141012901410139010F072007
:100C7A002020200307202020202020070F1C1E1ED2
:100C8A001E1E1E1E1C070F0F0F0F0F0F071F1F2000
:100C9A0020202020202020202020201F1F1F1F204E
:0E0CAA002020201F1F1E1C20202020181C00B0
:00000001FF
